{
  "_format": "hh-sol-artifact-1",
  "contractName": "FreeZone",
  "sourceName": "core/free.sol",
  "abi": [
    {
      "inputs": [
        {
          "internalType": "contract Dmap",
          "name": "d",
          "type": "address"
        }
      ],
      "stateMutability": "nonpayable",
      "type": "constructor"
    },
    {
      "inputs": [],
      "name": "ERR_LIMIT",
      "type": "error"
    },
    {
      "inputs": [],
      "name": "ERR_OWNER",
      "type": "error"
    },
    {
      "inputs": [],
      "name": "ERR_TAKEN",
      "type": "error"
    },
    {
      "anonymous": false,
      "inputs": [
        {
          "indexed": true,
          "internalType": "address",
          "name": "giver",
          "type": "address"
        },
        {
          "indexed": true,
          "internalType": "bytes32",
          "name": "zone",
          "type": "bytes32"
        },
        {
          "indexed": true,
          "internalType": "address",
          "name": "recipient",
          "type": "address"
        }
      ],
      "name": "Give",
      "type": "event"
    },
    {
      "inputs": [
        {
          "internalType": "bytes32",
          "name": "",
          "type": "bytes32"
        }
      ],
      "name": "controllers",
      "outputs": [
        {
          "internalType": "address",
          "name": "",
          "type": "address"
        }
      ],
      "stateMutability": "view",
      "type": "function"
    },
    {
      "inputs": [],
      "name": "dmap",
      "outputs": [
        {
          "internalType": "contract Dmap",
          "name": "",
          "type": "address"
        }
      ],
      "stateMutability": "view",
      "type": "function"
    },
    {
      "inputs": [
        {
          "internalType": "bytes32",
          "name": "key",
          "type": "bytes32"
        },
        {
          "internalType": "address",
          "name": "recipient",
          "type": "address"
        }
      ],
      "name": "give",
      "outputs": [],
      "stateMutability": "nonpayable",
      "type": "function"
    },
    {
      "inputs": [],
      "name": "last",
      "outputs": [
        {
          "internalType": "uint256",
          "name": "",
          "type": "uint256"
        }
      ],
      "stateMutability": "view",
      "type": "function"
    },
    {
      "inputs": [
        {
          "internalType": "bytes32",
          "name": "key",
          "type": "bytes32"
        },
        {
          "internalType": "bytes32",
          "name": "meta",
          "type": "bytes32"
        },
        {
          "internalType": "bytes32",
          "name": "data",
          "type": "bytes32"
        }
      ],
      "name": "set",
      "outputs": [],
      "stateMutability": "nonpayable",
      "type": "function"
    },
    {
      "inputs": [
        {
          "internalType": "bytes32",
          "name": "key",
          "type": "bytes32"
        }
      ],
      "name": "take",
      "outputs": [],
      "stateMutability": "nonpayable",
      "type": "function"
    }
  ],
  "bytecode": "0x60a0604052348015600f57600080fd5b5060405161058e38038061058e833981016040819052602c91603c565b6001600160a01b0316608052606a565b600060208284031215604d57600080fd5b81516001600160a01b0381168114606357600080fd5b9392505050565b60805161050361008b60003960008181609801526102c601526105036000f3fe608060405234801561001057600080fd5b50600436106100725760003560e01c8063bb40a4a911610050578063bb40a4a9146100f4578063cc9ae69314610107578063fbae406a1461011a57600080fd5b806347799da81461007757806396aab0db14610093578063baa8529c146100df575b600080fd5b61008060005481565b6040519081526020015b60405180910390f35b6100ba7f000000000000000000000000000000000000000000000000000000000000000081565b60405173ffffffffffffffffffffffffffffffffffffffff909116815260200161008a565b6100f26100ed36600461043f565b610150565b005b6100f2610102366004610488565b61022c565b6100f26101153660046104b4565b61033c565b6100ba6101283660046104b4565b60016020526000908152604090205473ffffffffffffffffffffffffffffffffffffffff1681565b60008281526001602052604090205473ffffffffffffffffffffffffffffffffffffffff1633146101ad576040517f4c9ac1eb00000000000000000000000000000000000000000000000000000000815260040160405180910390fd5b60008281526001602052604080822080547fffffffffffffffffffffffff00000000000000000000000000000000000000001673ffffffffffffffffffffffffffffffffffffffff851690811790915590519091849133917f233a12001d1b536e640acdd9d00a3f54c2bc6f66404065ba43cc2e84b6ee3d0191a45050565b60008381526001602052604090205473ffffffffffffffffffffffffffffffffffffffff163314610289576040517f4c9ac1eb00000000000000000000000000000000000000000000000000000000815260040160405180910390fd5b6040517fbb40a4a90000000000000000000000000000000000000000000000000000000081526004810184905260248101839052604481018290527f000000000000000000000000000000000000000000000000000000000000000073ffffffffffffffffffffffffffffffffffffffff169063bb40a4a990606401600060405180830381600087803b15801561031f57600080fd5b505af1158015610333573d6000803e3d6000fd5b50505050505050565b60008181526001602052604090205473ffffffffffffffffffffffffffffffffffffffff1615610398576040517f3d1fd58d00000000000000000000000000000000000000000000000000000000815260040160405180910390fd5b60005442116103d3576040517fb9cde51100000000000000000000000000000000000000000000000000000000815260040160405180910390fd5b4260009081558181526001602052604080822080547fffffffffffffffffffffffff000000000000000000000000000000000000000016339081179091559051909183917f233a12001d1b536e640acdd9d00a3f54c2bc6f66404065ba43cc2e84b6ee3d01908290a450565b6000806040838503121561045257600080fd5b82359150602083013573ffffffffffffffffffffffffffffffffffffffff8116811461047d57600080fd5b809150509250929050565b60008060006060848603121561049d57600080fd5b505081359360208301359350604090920135919050565b6000602082840312156104c657600080fd5b503591905056fea2646970667358221220f93f85f41f2f91b13d3310b1adfe019d34e942367a419854d0dc1b3c0bd2008c64736f6c63430008220033",
  "linkReferences": {},
  "deployedLinkReferences": {}
}