{
  "_format": "hh-sol-artifact-1",
  "contractName": "Dmap",
  "sourceName": "core/dmap.sol",
  "abi": [
    {
      "inputs": [],
      "name": "LOCKED",
      "type": "error"
    },
    {
      "anonymous": true,
      "inputs": [
        {
          "indexed": true,
          "internalType": "address",
          "name": "zone",
          "type": "address"
        },
        {
          "indexed": true,
          "internalType": "bytes32",
          "name": "name",
          "type": "bytes32"
        },
        {
          "indexed": true,
          "internalType": "bytes32",
          "name": "meta",
          "type": "bytes32"
        },
        {
          "indexed": true,
          "internalType": "bytes32",
          "name": "data",
          "type": "bytes32"
        }
      ],
      "name": "Set",
      "type": "event"
    },
    {
      "inputs": [
        {
          "internalType": "bytes32",
          "name": "slot",
          "type": "bytes32"
        }
      ],
      "name": "get",
      "outputs": [
        {
          "internalType": "bytes32",
          "name": "meta",
          "type": "bytes32"
        },
        {
          "internalType": "bytes32",
          "name": "data",
          "type": "bytes32"
        }
      ],
      "stateMutability": "view",
      "type": "function"
    },
    {
      "inputs": [
        {
          "internalType": "bytes32",
          "name": "name",
          "type": "bytes32"
        },
        {
          "internalType": "bytes32",
          "name": "meta",
          "type": "bytes32"
        },
        {
          "internalType": "bytes32",
          "name": "data",
          "type": "bytes32"
        }
      ],
      "name": "set",
      "outputs": [],
      "stateMutability": "nonpayable",
      "type": "function"
    }
  ],
  "bytecode": "0x6080604052348015600f57600080fd5b50604051610128380380610128833981016040819052602c91603d565b60016000558060601b60015550606b565b600060208284031215604e57600080fd5b81516001600160a01b0381168114606457600080fd5b9392505050565b60af806100796000396000f3fe608060405236602403602257600435546000526004356001015460205260406000f35b6004356024356044353360005282602052604060002081838533600080a481600182015580546001163660641817605857828155005b505050503660640360745763a1422f6960e01b60005260046000fd5b600080fdfea2646970667358221220c620c627fa6301159be5cb386e47d9d37c214205b25c2893a7663b07ef8f3ada64736f6c63430008220033",
  "linkReferences": {},
  "deployedLinkReferences": {}
}